{
  "_format": "hh-sol-artifact-1",
  "contractName": "BallotCast",
  "sourceName": "contracts/ballotcast.sol",
  "abi": [
    {
      "inputs": [],
      "stateMutability": "nonpayable",
      "type": "constructor"
    },
    {
      "anonymous": false,
      "inputs": [
        {
          "indexed": false,
          "internalType": "string",
          "name": "name",
          "type": "string"
        }
      ],
      "name": "CandidateAdded",
      "type": "event"
    },
    {
      "anonymous": false,
      "inputs": [
        {
          "indexed": false,
          "internalType": "bool",
          "name": "active",
          "type": "bool"
        }
      ],
      "name": "RevealPhaseStatusChanged",
      "type": "event"
    },
    {
      "anonymous": false,
      "inputs": [],
      "name": "TallyCompleted",
      "type": "event"
    },
    {
      "anonymous": false,
      "inputs": [
        {
          "indexed": false,
          "internalType": "address",
          "name": "voter",
          "type": "address"
        }
      ],
      "name": "VoteCommitted",
      "type": "event"
    },
    {
      "anonymous": false,
      "inputs": [
        {
          "indexed": false,
          "internalType": "address",
          "name": "voter",
          "type": "address"
        },
        {
          "indexed": false,
          "internalType": "uint256",
          "name": "candidateIndex",
          "type": "uint256"
        }
      ],
      "name": "VoteRevealed",
      "type": "event"
    },
    {
      "anonymous": false,
      "inputs": [
        {
          "indexed": false,
          "internalType": "address",
          "name": "voter",
          "type": "address"
        }
      ],
      "name": "VoterRegistered",
      "type": "event"
    },
    {
      "anonymous": false,
      "inputs": [
        {
          "indexed": false,
          "internalType": "bool",
          "name": "active",
          "type": "bool"
        }
      ],
      "name": "VotingStatusChanged",
      "type": "event"
    },
    {
      "inputs": [
        {
          "internalType": "string",
          "name": "_name",
          "type": "string"
        }
      ],
      "name": "addCandidate",
      "outputs": [],
      "stateMutability": "nonpayable",
      "type": "function"
    },
    {
      "inputs": [],
      "name": "admin",
      "outputs": [
        {
          "internalType": "address",
          "name": "",
          "type": "address"
        }
      ],
      "stateMutability": "view",
      "type": "function"
    },
    {
      "inputs": [
        {
          "internalType": "uint256",
          "name": "",
          "type": "uint256"
        }
      ],
      "name": "candidates",
      "outputs": [
        {
          "internalType": "string",
          "name": "name",
          "type": "string"
        },
        {
          "internalType": "uint256",
          "name": "voteCount",
          "type": "uint256"
        }
      ],
      "stateMutability": "view",
      "type": "function"
    },
    {
      "inputs": [
        {
          "internalType": "bytes32",
          "name": "_voteCommitment",
          "type": "bytes32"
        }
      ],
      "name": "commitVote",
      "outputs": [],
      "stateMutability": "nonpayable",
      "type": "function"
    },
    {
      "inputs": [],
      "name": "endRevealPhase",
      "outputs": [],
      "stateMutability": "nonpayable",
      "type": "function"
    },
    {
      "inputs": [
        {
          "internalType": "uint256",
          "name": "_index",
          "type": "uint256"
        }
      ],
      "name": "getCandidate",
      "outputs": [
        {
          "internalType": "string",
          "name": "",
          "type": "string"
        },
        {
          "internalType": "uint256",
          "name": "",
          "type": "uint256"
        }
      ],
      "stateMutability": "view",
      "type": "function"
    },
    {
      "inputs": [],
      "name": "getCandidatesCount",
      "outputs": [
        {
          "internalType": "uint256",
          "name": "",
          "type": "uint256"
        }
      ],
      "stateMutability": "view",
      "type": "function"
    },
    {
      "inputs": [
        {
          "internalType": "address",
          "name": "_voter",
          "type": "address"
        }
      ],
      "name": "registerVoter",
      "outputs": [],
      "stateMutability": "nonpayable",
      "type": "function"
    },
    {
      "inputs": [],
      "name": "revealPhaseActive",
      "outputs": [
        {
          "internalType": "bool",
          "name": "",
          "type": "bool"
        }
      ],
      "stateMutability": "view",
      "type": "function"
    },
    {
      "inputs": [
        {
          "internalType": "uint256",
          "name": "_candidateIndex",
          "type": "uint256"
        },
        {
          "internalType": "string",
          "name": "_nonce",
          "type": "string"
        }
      ],
      "name": "revealVote",
      "outputs": [],
      "stateMutability": "nonpayable",
      "type": "function"
    },
    {
      "inputs": [],
      "name": "startCommitPhase",
      "outputs": [],
      "stateMutability": "nonpayable",
      "type": "function"
    },
    {
      "inputs": [],
      "name": "startRevealPhase",
      "outputs": [],
      "stateMutability": "nonpayable",
      "type": "function"
    },
    {
      "inputs": [
        {
          "internalType": "uint256",
          "name": "",
          "type": "uint256"
        }
      ],
      "name": "voterAddresses",
      "outputs": [
        {
          "internalType": "address",
          "name": "",
          "type": "address"
        }
      ],
      "stateMutability": "view",
      "type": "function"
    },
    {
      "inputs": [
        {
          "internalType": "address",
          "name": "",
          "type": "address"
        }
      ],
      "name": "voters",
      "outputs": [
        {
          "internalType": "bool",
          "name": "isRegistered",
          "type": "bool"
        },
        {
          "internalType": "bool",
          "name": "hasCommitted",
          "type": "bool"
        },
        {
          "internalType": "bool",
          "name": "hasRevealed",
          "type": "bool"
        },
        {
          "internalType": "bytes32",
          "name": "voteCommitment",
          "type": "bytes32"
        }
      ],
      "stateMutability": "view",
      "type": "function"
    },
    {
      "inputs": [],
      "name": "votingActive",
      "outputs": [
        {
          "internalType": "bool",
          "name": "",
          "type": "bool"
        }
      ],
      "stateMutability": "view",
      "type": "function"
    }
  ],
  "bytecode": "0x6080604052348015600f57600080fd5b50336000806101000a81548173ffffffffffffffffffffffffffffffffffffffff021916908373ffffffffffffffffffffffffffffffffffffffff1602179055506122e18061005f6000396000f3fe608060405234801561001057600080fd5b50600436106100f55760003560e01c8063772c816111610097578063c6fd5d4e11610066578063c6fd5d4e1461024f578063dd0e237314610259578063e007cb8114610289578063f851a440146102a7576100f5565b8063772c8161146101d8578063a3ec138d146101f4578063afbde96314610227578063bb9aa28f14610231576100f5565b80633e858923116100d35780633e85892314610178578063408e272714610194578063462e91ec146101b25780637183f43a146101ce576100f5565b80633477ee2e146100fa57806335b8e8201461012b57806338db6dd31461015c575b600080fd5b610114600480360381019061010f91906114ae565b6102c5565b60405161012292919061157a565b60405180910390f35b610145600480360381019061014091906114ae565b610381565b60405161015392919061157a565b60405180910390f35b61017660048036038101906101719190611608565b6104ad565b005b610192600480360381019061018d919061166b565b610741565b005b61019c6109a3565b6040516101a991906116b3565b60405180910390f35b6101cc60048036038101906101c79190611803565b6109b6565b005b6101d6610ae1565b005b6101f260048036038101906101ed919061184c565b610c2d565b005b61020e60048036038101906102099190611608565b610f7f565b60405161021e94939291906118b7565b60405180910390f35b61022f610fd6565b005b610239611295565b60405161024691906118fc565b60405180910390f35b6102576112a2565b005b610273600480360381019061026e91906114ae565b6113ee565b6040516102809190611926565b60405180910390f35b61029161142d565b60405161029e91906116b3565b60405180910390f35b6102af611440565b6040516102bc9190611926565b60405180910390f35b600281815481106102d557600080fd5b90600052602060002090600202016000915090508060000180546102f890611970565b80601f016020809104026020016040519081016040528092919081815260200182805461032490611970565b80156103715780601f1061034657610100808354040283529160200191610371565b820191906000526020600020905b81548152906001019060200180831161035457829003601f168201915b5050505050908060010154905082565b6060600060028054905083106103cc576040517f08c379a00000000000000000000000000000000000000000000000000000000081526004016103c3906119ed565b60405180910390fd5b6000600284815481106103e2576103e1611a0d565b5b906000526020600020906002020160405180604001604052908160008201805461040b90611970565b80601f016020809104026020016040519081016040528092919081815260200182805461043790611970565b80156104845780601f1061045957610100808354040283529160200191610484565b820191906000526020600020905b81548152906001019060200180831161046757829003601f168201915b505050505081526020016001820154815250509050806000015181602001519250925050915091565b60008054906101000a900473ffffffffffffffffffffffffffffffffffffffff1673ffffffffffffffffffffffffffffffffffffffff163373ffffffffffffffffffffffffffffffffffffffff161461053b576040517f08c379a000000000000000000000000000000000000000000000000000000000815260040161053290611aae565b60405180910390fd5b600160008273ffffffffffffffffffffffffffffffffffffffff1673ffffffffffffffffffffffffffffffffffffffff16815260200190815260200160002060000160009054906101000a900460ff16156105cb576040517f08c379a00000000000000000000000000000000000000000000000000000000081526004016105c290611b1a565b60405180910390fd5b60405180608001604052806001151581526020016000151581526020016000151581526020016000801b815250600160008373ffffffffffffffffffffffffffffffffffffffff1673ffffffffffffffffffffffffffffffffffffffff16815260200190815260200160002060008201518160000160006101000a81548160ff02191690831515021790555060208201518160000160016101000a81548160ff02191690831515021790555060408201518160000160026101000a81548160ff021916908315150217905550606082015181600101559050506003819080600181540180825580915050600190039060005260206000200160009091909190916101000a81548173ffffffffffffffffffffffffffffffffffffffff021916908373ffffffffffffffffffffffffffffffffffffffff1602179055507fb6be2187d059cc2a55fe29e0e503b566e1e0f8c8780096e185429350acffd3dd816040516107369190611926565b60405180910390a150565b600160003373ffffffffffffffffffffffffffffffffffffffff1673ffffffffffffffffffffffffffffffffffffffff16815260200190815260200160002060000160009054906101000a900460ff166107d0576040517f08c379a00000000000000000000000000000000000000000000000000000000081526004016107c790611b86565b60405180910390fd5b600060149054906101000a900460ff1680156107f95750600060159054906101000a900460ff16155b610838576040517f08c379a000000000000000000000000000000000000000000000000000000000815260040161082f90611bf2565b60405180910390fd5b600160003373ffffffffffffffffffffffffffffffffffffffff1673ffffffffffffffffffffffffffffffffffffffff16815260200190815260200160002060000160019054906101000a900460ff16156108c8576040517f08c379a00000000000000000000000000000000000000000000000000000000081526004016108bf90611c84565b60405180910390fd5b80600160003373ffffffffffffffffffffffffffffffffffffffff1673ffffffffffffffffffffffffffffffffffffffff1681526020019081526020016000206001018190555060018060003373ffffffffffffffffffffffffffffffffffffffff1673ffffffffffffffffffffffffffffffffffffffff16815260200190815260200160002060000160016101000a81548160ff0219169083151502179055507fd8333eeb60b5f1fb9e6e2c3c665fb5ec81dee6d37fcd17dda27d169009d6c7eb336040516109989190611926565b60405180910390a150565b600060149054906101000a900460ff1681565b60008054906101000a900473ffffffffffffffffffffffffffffffffffffffff1673ffffffffffffffffffffffffffffffffffffffff163373ffffffffffffffffffffffffffffffffffffffff1614610a44576040517f08c379a0000000000000000000000000000000000000000000000000000000008152600401610a3b90611aae565b60405180910390fd5b60026040518060400160405280838152602001600081525090806001815401808255809150506001900390600052602060002090600202016000909190919091506000820151816000019081610a9a9190611e50565b506020820151816001015550507ff29562dad1599aea0ebb142466120aab326d5efa8f839df82a9c064bf78e893881604051610ad69190611f22565b60405180910390a150565b60008054906101000a900473ffffffffffffffffffffffffffffffffffffffff1673ffffffffffffffffffffffffffffffffffffffff163373ffffffffffffffffffffffffffffffffffffffff1614610b6f576040517f08c379a0000000000000000000000000000000000000000000000000000000008152600401610b6690611aae565b60405180910390fd5b600060149054906101000a900460ff16158015610b995750600060159054906101000a900460ff16155b610bd8576040517f08c379a0000000000000000000000000000000000000000000000000000000008152600401610bcf90611f90565b60405180910390fd5b6001600060146101000a81548160ff0219169083151502179055507f9069a1a16ace751e8690f383e12f87b01e8488ba387e626810bd113fef0417f96001604051610c2391906116b3565b60405180910390a1565b600160003373ffffffffffffffffffffffffffffffffffffffff1673ffffffffffffffffffffffffffffffffffffffff16815260200190815260200160002060000160009054906101000a900460ff16610cbc576040517f08c379a0000000000000000000000000000000000000000000000000000000008152600401610cb390611b86565b60405180910390fd5b600060149054906101000a900460ff16158015610ce55750600060159054906101000a900460ff165b610d24576040517f08c379a0000000000000000000000000000000000000000000000000000000008152600401610d1b90611ffc565b60405180910390fd5b600160003373ffffffffffffffffffffffffffffffffffffffff1673ffffffffffffffffffffffffffffffffffffffff16815260200190815260200160002060000160029054906101000a900460ff1615610db4576040517f08c379a0000000000000000000000000000000000000000000000000000000008152600401610dab9061208e565b60405180910390fd5b6002805490508210610dfb576040517f08c379a0000000000000000000000000000000000000000000000000000000008152600401610df2906119ed565b60405180910390fd5b60008282604051602001610e1092919061210b565b604051602081830303815290604052805190602001209050600160003373ffffffffffffffffffffffffffffffffffffffff1673ffffffffffffffffffffffffffffffffffffffff168152602001908152602001600020600101548114610eac576040517f08c379a0000000000000000000000000000000000000000000000000000000008152600401610ea39061217f565b60405180910390fd5b60018060003373ffffffffffffffffffffffffffffffffffffffff1673ffffffffffffffffffffffffffffffffffffffff16815260200190815260200160002060000160026101000a81548160ff02191690831515021790555060028381548110610f1a57610f19611a0d565b5b90600052602060002090600202016001016000815480929190610f3c906121ce565b91905055507f522b45c661375abb939dc17b4b600412c93af64fcbe24859a73539d01bb4eec83384604051610f72929190612216565b60405180910390a1505050565b60016020528060005260406000206000915090508060000160009054906101000a900460ff16908060000160019054906101000a900460ff16908060000160029054906101000a900460ff16908060010154905084565b60008054906101000a900473ffffffffffffffffffffffffffffffffffffffff1673ffffffffffffffffffffffffffffffffffffffff163373ffffffffffffffffffffffffffffffffffffffff1614611064576040517f08c379a000000000000000000000000000000000000000000000000000000000815260040161105b90611aae565b60405180910390fd5b600060159054906101000a900460ff166110b3576040517f08c379a00000000000000000000000000000000000000000000000000000000081526004016110aa90611ffc565b60405180910390fd5b60008060156101000a81548160ff0219169083151502179055507fe01f3c5b3c180379b6c2bf4f8701e04cb308c6f958190156ae33cc2321e95c9960006040516110fd91906116b3565b60405180910390a17f320334d6daae0e76de8bb959e7d100c016bb1b42e6158dce713fc350a5d8b5be60405160405180910390a160005b6003805490508110156112925760006003828154811061115757611156611a0d565b5b9060005260206000200160009054906101000a900473ffffffffffffffffffffffffffffffffffffffff1690506000600160008373ffffffffffffffffffffffffffffffffffffffff1673ffffffffffffffffffffffffffffffffffffffff16815260200190815260200160002060000160016101000a81548160ff0219169083151502179055506000600160008373ffffffffffffffffffffffffffffffffffffffff1673ffffffffffffffffffffffffffffffffffffffff16815260200190815260200160002060000160026101000a81548160ff0219169083151502179055506000801b600160008373ffffffffffffffffffffffffffffffffffffffff1673ffffffffffffffffffffffffffffffffffffffff16815260200190815260200160002060010181905550508080600101915050611134565b50565b6000600280549050905090565b60008054906101000a900473ffffffffffffffffffffffffffffffffffffffff1673ffffffffffffffffffffffffffffffffffffffff163373ffffffffffffffffffffffffffffffffffffffff1614611330576040517f08c379a000000000000000000000000000000000000000000000000000000000815260040161132790611aae565b60405180910390fd5b600060149054906101000a900460ff1661137f576040517f08c379a00000000000000000000000000000000000000000000000000000000081526004016113769061228b565b60405180910390fd5b60008060146101000a81548160ff0219169083151502179055506001600060156101000a81548160ff0219169083151502179055507fe01f3c5b3c180379b6c2bf4f8701e04cb308c6f958190156ae33cc2321e95c9960016040516113e491906116b3565b60405180910390a1565b600381815481106113fe57600080fd5b906000526020600020016000915054906101000a900473ffffffffffffffffffffffffffffffffffffffff1681565b600060159054906101000a900460ff1681565b60008054906101000a900473ffffffffffffffffffffffffffffffffffffffff1681565b6000604051905090565b600080fd5b600080fd5b6000819050919050565b61148b81611478565b811461149657600080fd5b50565b6000813590506114a881611482565b92915050565b6000602082840312156114c4576114c361146e565b5b60006114d284828501611499565b91505092915050565b600081519050919050565b600082825260208201905092915050565b60005b838110156115155780820151818401526020810190506114fa565b60008484015250505050565b6000601f19601f8301169050919050565b600061153d826114db565b61154781856114e6565b93506115578185602086016114f7565b61156081611521565b840191505092915050565b61157481611478565b82525050565b600060408201905081810360008301526115948185611532565b90506115a3602083018461156b565b9392505050565b600073ffffffffffffffffffffffffffffffffffffffff82169050919050565b60006115d5826115aa565b9050919050565b6115e5816115ca565b81146115f057600080fd5b50565b600081359050611602816115dc565b92915050565b60006020828403121561161e5761161d61146e565b5b600061162c848285016115f3565b91505092915050565b6000819050919050565b61164881611635565b811461165357600080fd5b50565b6000813590506116658161163f565b92915050565b6000602082840312156116815761168061146e565b5b600061168f84828501611656565b91505092915050565b60008115159050919050565b6116ad81611698565b82525050565b60006020820190506116c860008301846116a4565b92915050565b600080fd5b600080fd5b7f4e487b7100000000000000000000000000000000000000000000000000000000600052604160045260246000fd5b61171082611521565b810181811067ffffffffffffffff8211171561172f5761172e6116d8565b5b80604052505050565b6000611742611464565b905061174e8282611707565b919050565b600067ffffffffffffffff82111561176e5761176d6116d8565b5b61177782611521565b9050602081019050919050565b82818337600083830152505050565b60006117a66117a184611753565b611738565b9050828152602081018484840111156117c2576117c16116d3565b5b6117cd848285611784565b509392505050565b600082601f8301126117ea576117e96116ce565b5b81356117fa848260208601611793565b91505092915050565b6000602082840312156118195761181861146e565b5b600082013567ffffffffffffffff81111561183757611836611473565b5b611843848285016117d5565b91505092915050565b600080604083850312156118635761186261146e565b5b600061187185828601611499565b925050602083013567ffffffffffffffff81111561189257611891611473565b5b61189e858286016117d5565b9150509250929050565b6118b181611635565b82525050565b60006080820190506118cc60008301876116a4565b6118d960208301866116a4565b6118e660408301856116a4565b6118f360608301846118a8565b95945050505050565b6000602082019050611911600083018461156b565b92915050565b611920816115ca565b82525050565b600060208201905061193b6000830184611917565b92915050565b7f4e487b7100000000000000000000000000000000000000000000000000000000600052602260045260246000fd5b6000600282049050600182168061198857607f821691505b60208210810361199b5761199a611941565b5b50919050565b7f496e76616c69642063616e64696461746520696e646578000000000000000000600082015250565b60006119d76017836114e6565b91506119e2826119a1565b602082019050919050565b60006020820190508181036000830152611a06816119ca565b9050919050565b7f4e487b7100000000000000000000000000000000000000000000000000000000600052603260045260246000fd5b7f4f6e6c792061646d696e2063616e20706572666f726d2074686973206163746960008201527f6f6e000000000000000000000000000000000000000000000000000000000000602082015250565b6000611a986022836114e6565b9150611aa382611a3c565b604082019050919050565b60006020820190508181036000830152611ac781611a8b565b9050919050565b7f566f74657220697320616c726561647920726567697374657265640000000000600082015250565b6000611b04601b836114e6565b9150611b0f82611ace565b602082019050919050565b60006020820190508181036000830152611b3381611af7565b9050919050565b7f596f7520617265206e6f74207265676973746572656400000000000000000000600082015250565b6000611b706016836114e6565b9150611b7b82611b3a565b602082019050919050565b60006020820190508181036000830152611b9f81611b63565b9050919050565b7f436f6d6d6974207068617365206973206e6f7420616374697665000000000000600082015250565b6000611bdc601a836114e6565b9150611be782611ba6565b602082019050919050565b60006020820190508181036000830152611c0b81611bcf565b9050919050565b7f596f75206861766520616c726561647920636f6d6d697474656420796f75722060008201527f766f746500000000000000000000000000000000000000000000000000000000602082015250565b6000611c6e6024836114e6565b9150611c7982611c12565b604082019050919050565b60006020820190508181036000830152611c9d81611c61565b9050919050565b60008190508160005260206000209050919050565b60006020601f8301049050919050565b600082821b905092915050565b600060088302611d067fffffffffffffffffffffffffffffffffffffffffffffffffffffffffffffffff82611cc9565b611d108683611cc9565b95508019841693508086168417925050509392505050565b6000819050919050565b6000611d4d611d48611d4384611478565b611d28565b611478565b9050919050565b6000819050919050565b611d6783611d32565b611d7b611d7382611d54565b848454611cd6565b825550505050565b600090565b611d90611d83565b611d9b818484611d5e565b505050565b5b81811015611dbf57611db4600082611d88565b600181019050611da1565b5050565b601f821115611e0457611dd581611ca4565b611dde84611cb9565b81016020851015611ded578190505b611e01611df985611cb9565b830182611da0565b50505b505050565b600082821c905092915050565b6000611e2760001984600802611e09565b1980831691505092915050565b6000611e408383611e16565b9150826002028217905092915050565b611e59826114db565b67ffffffffffffffff811115611e7257611e716116d8565b5b611e7c8254611970565b611e87828285611dc3565b600060209050601f831160018114611eba5760008415611ea8578287015190505b611eb28582611e34565b865550611f1a565b601f198416611ec886611ca4565b60005b82811015611ef057848901518255600182019150602085019450602081019050611ecb565b86831015611f0d5784890151611f09601f891682611e16565b8355505b6001600288020188555050505b505050505050565b60006020820190508181036000830152611f3c8184611532565b905092915050565b7f566f74696e6720616c7265616479206163746976650000000000000000000000600082015250565b6000611f7a6015836114e6565b9150611f8582611f44565b602082019050919050565b60006020820190508181036000830152611fa981611f6d565b9050919050565b7f52657665616c207068617365206973206e6f7420616374697665000000000000600082015250565b6000611fe6601a836114e6565b9150611ff182611fb0565b602082019050919050565b6000602082019050818103600083015261201581611fd9565b9050919050565b7f596f75206861766520616c72656164792072657665616c656420796f7572207660008201527f6f74650000000000000000000000000000000000000000000000000000000000602082015250565b60006120786023836114e6565b91506120838261201c565b604082019050919050565b600060208201905081810360008301526120a78161206b565b9050919050565b6000819050919050565b6120c96120c482611478565b6120ae565b82525050565b600081905092915050565b60006120e5826114db565b6120ef81856120cf565b93506120ff8185602086016114f7565b80840191505092915050565b600061211782856120b8565b60208201915061212782846120da565b91508190509392505050565b7f566f746520636f6d6d69746d656e7420646f6573206e6f74206d617463680000600082015250565b6000612169601e836114e6565b915061217482612133565b602082019050919050565b600060208201905081810360008301526121988161215c565b9050919050565b7f4e487b7100000000000000000000000000000000000000000000000000000000600052601160045260246000fd5b60006121d982611478565b91507fffffffffffffffffffffffffffffffffffffffffffffffffffffffffffffffff820361220b5761220a61219f565b5b600182019050919050565b600060408201905061222b6000830185611917565b612238602083018461156b565b9392505050565b7f566f74696e67206973206e6f7420616374697665000000000000000000000000600082015250565b60006122756014836114e6565b91506122808261223f565b602082019050919050565b600060208201905081810360008301526122a481612268565b905091905056fea2646970667358221220cccfb5e61b07a4c8c06288e4781698afd7a562fc2f12f95d649a572b87bd02fc64736f6c634300081b0033",
  "linkReferences": {},
  "deployedLinkReferences": {}
}