{
  "_format": "hh-sol-artifact-1",
  "contractName": "BallotCast",
  "sourceName": "contracts/ballotcast.sol",
  "abi": [
    {
      "inputs": [],
      "stateMutability": "nonpayable",
      "type": "constructor"
    },
    {
      "anonymous": false,
      "inputs": [
        {
          "indexed": false,
          "internalType": "string",
          "name": "name",
          "type": "string"
        }
      ],
      "name": "CandidateAdded",
      "type": "event"
    },
    {
      "anonymous": false,
      "inputs": [
        {
          "indexed": false,
          "internalType": "bool",
          "name": "active",
          "type": "bool"
        }
      ],
      "name": "RevealPhaseStatusChanged",
      "type": "event"
    },
    {
      "anonymous": false,
      "inputs": [],
      "name": "TallyCompleted",
      "type": "event"
    },
    {
      "anonymous": false,
      "inputs": [
        {
          "indexed": false,
          "internalType": "address",
          "name": "voter",
          "type": "address"
        }
      ],
      "name": "VoteCommitted",
      "type": "event"
    },
    {
      "anonymous": false,
      "inputs": [
        {
          "indexed": false,
          "internalType": "address",
          "name": "voter",
          "type": "address"
        },
        {
          "indexed": false,
          "internalType": "uint256",
          "name": "candidateIndex",
          "type": "uint256"
        }
      ],
      "name": "VoteRevealed",
      "type": "event"
    },
    {
      "anonymous": false,
      "inputs": [
        {
          "indexed": false,
          "internalType": "address",
          "name": "voter",
          "type": "address"
        }
      ],
      "name": "VoterRegistered",
      "type": "event"
    },
    {
      "anonymous": false,
      "inputs": [
        {
          "indexed": false,
          "internalType": "bool",
          "name": "active",
          "type": "bool"
        }
      ],
      "name": "VotingStatusChanged",
      "type": "event"
    },
    {
      "inputs": [
        {
          "internalType": "string",
          "name": "_name",
          "type": "string"
        }
      ],
      "name": "addCandidate",
      "outputs": [],
      "stateMutability": "nonpayable",
      "type": "function"
    },
    {
      "inputs": [],
      "name": "admin",
      "outputs": [
        {
          "internalType": "address",
          "name": "",
          "type": "address"
        }
      ],
      "stateMutability": "view",
      "type": "function"
    },
    {
      "inputs": [
        {
          "internalType": "uint256",
          "name": "",
          "type": "uint256"
        }
      ],
      "name": "candidates",
      "outputs": [
        {
          "internalType": "string",
          "name": "name",
          "type": "string"
        },
        {
          "internalType": "uint256",
          "name": "voteCount",
          "type": "uint256"
        }
      ],
      "stateMutability": "view",
      "type": "function"
    },
    {
      "inputs": [
        {
          "internalType": "bytes32",
          "name": "_voteCommitment",
          "type": "bytes32"
        }
      ],
      "name": "commitVote",
      "outputs": [],
      "stateMutability": "nonpayable",
      "type": "function"
    },
    {
      "inputs": [],
      "name": "endRevealPhase",
      "outputs": [],
      "stateMutability": "nonpayable",
      "type": "function"
    },
    {
      "inputs": [
        {
          "internalType": "uint256",
          "name": "_index",
          "type": "uint256"
        }
      ],
      "name": "getCandidate",
      "outputs": [
        {
          "internalType": "string",
          "name": "",
          "type": "string"
        },
        {
          "internalType": "uint256",
          "name": "",
          "type": "uint256"
        }
      ],
      "stateMutability": "view",
      "type": "function"
    },
    {
      "inputs": [],
      "name": "getCandidatesCount",
      "outputs": [
        {
          "internalType": "uint256",
          "name": "",
          "type": "uint256"
        }
      ],
      "stateMutability": "view",
      "type": "function"
    },
    {
      "inputs": [
        {
          "internalType": "address",
          "name": "_voter",
          "type": "address"
        }
      ],
      "name": "registerVoter",
      "outputs": [],
      "stateMutability": "nonpayable",
      "type": "function"
    },
    {
      "inputs": [],
      "name": "revealPhaseActive",
      "outputs": [
        {
          "internalType": "bool",
          "name": "",
          "type": "bool"
        }
      ],
      "stateMutability": "view",
      "type": "function"
    },
    {
      "inputs": [
        {
          "internalType": "uint256",
          "name": "_candidateIndex",
          "type": "uint256"
        },
        {
          "internalType": "string",
          "name": "_nonce",
          "type": "string"
        }
      ],
      "name": "revealVote",
      "outputs": [],
      "stateMutability": "nonpayable",
      "type": "function"
    },
    {
      "inputs": [],
      "name": "startCommitPhase",
      "outputs": [],
      "stateMutability": "nonpayable",
      "type": "function"
    },
    {
      "inputs": [],
      "name": "startRevealPhase",
      "outputs": [],
      "stateMutability": "nonpayable",
      "type": "function"
    },
    {
      "inputs": [
        {
          "internalType": "uint256",
          "name": "",
          "type": "uint256"
        }
      ],
      "name": "voterAddresses",
      "outputs": [
        {
          "internalType": "address",
          "name": "",
          "type": "address"
        }
      ],
      "stateMutability": "view",
      "type": "function"
    },
    {
      "inputs": [
        {
          "internalType": "address",
          "name": "",
          "type": "address"
        }
      ],
      "name": "voters",
      "outputs": [
        {
          "internalType": "bool",
          "name": "isRegistered",
          "type": "bool"
        },
        {
          "internalType": "bool",
          "name": "hasCommitted",
          "type": "bool"
        },
        {
          "internalType": "bool",
          "name": "hasRevealed",
          "type": "bool"
        },
        {
          "internalType": "bytes32",
          "name": "voteCommitment",
          "type": "bytes32"
        }
      ],
      "stateMutability": "view",
      "type": "function"
    },
    {
      "inputs": [],
      "name": "votingActive",
      "outputs": [
        {
          "internalType": "bool",
          "name": "",
          "type": "bool"
        }
      ],
      "stateMutability": "view",
      "type": "function"
    }
  ],
  "bytecode": "0x6080604052348015600f57600080fd5b50336000806101000a81548173ffffffffffffffffffffffffffffffffffffffff021916908373ffffffffffffffffffffffffffffffffffffffff16021790555061233c8061005f6000396000f3fe608060405234801561001057600080fd5b50600436106100f55760003560e01c8063772c816111610097578063c6fd5d4e11610066578063c6fd5d4e1461024f578063dd0e237314610259578063e007cb8114610289578063f851a440146102a7576100f5565b8063772c8161146101d8578063a3ec138d146101f4578063afbde96314610227578063bb9aa28f14610231576100f5565b80633e858923116100d35780633e85892314610178578063408e272714610194578063462e91ec146101b25780637183f43a146101ce576100f5565b80633477ee2e146100fa57806335b8e8201461012b57806338db6dd31461015c575b600080fd5b610114600480360381019061010f91906114b0565b6102c5565b60405161012292919061157c565b60405180910390f35b610145600480360381019061014091906114b0565b610381565b60405161015392919061157c565b60405180910390f35b6101766004803603810190610171919061160a565b6104ad565b005b610192600480360381019061018d919061166d565b610741565b005b61019c6109a3565b6040516101a991906116b5565b60405180910390f35b6101cc60048036038101906101c79190611805565b6109b6565b005b6101d6610ae1565b005b6101f260048036038101906101ed919061184e565b610c2d565b005b61020e6004803603810190610209919061160a565b610f81565b60405161021e94939291906118b9565b60405180910390f35b61022f610fd8565b005b610239611297565b60405161024691906118fe565b60405180910390f35b6102576112a4565b005b610273600480360381019061026e91906114b0565b6113f0565b6040516102809190611928565b60405180910390f35b61029161142f565b60405161029e91906116b5565b60405180910390f35b6102af611442565b6040516102bc9190611928565b60405180910390f35b600281815481106102d557600080fd5b90600052602060002090600202016000915090508060000180546102f890611972565b80601f016020809104026020016040519081016040528092919081815260200182805461032490611972565b80156103715780601f1061034657610100808354040283529160200191610371565b820191906000526020600020905b81548152906001019060200180831161035457829003601f168201915b5050505050908060010154905082565b6060600060028054905083106103cc576040517f08c379a00000000000000000000000000000000000000000000000000000000081526004016103c3906119ef565b60405180910390fd5b6000600284815481106103e2576103e1611a0f565b5b906000526020600020906002020160405180604001604052908160008201805461040b90611972565b80601f016020809104026020016040519081016040528092919081815260200182805461043790611972565b80156104845780601f1061045957610100808354040283529160200191610484565b820191906000526020600020905b81548152906001019060200180831161046757829003601f168201915b505050505081526020016001820154815250509050806000015181602001519250925050915091565b60008054906101000a900473ffffffffffffffffffffffffffffffffffffffff1673ffffffffffffffffffffffffffffffffffffffff163373ffffffffffffffffffffffffffffffffffffffff161461053b576040517f08c379a000000000000000000000000000000000000000000000000000000000815260040161053290611ab0565b60405180910390fd5b600160008273ffffffffffffffffffffffffffffffffffffffff1673ffffffffffffffffffffffffffffffffffffffff16815260200190815260200160002060000160009054906101000a900460ff16156105cb576040517f08c379a00000000000000000000000000000000000000000000000000000000081526004016105c290611b1c565b60405180910390fd5b60405180608001604052806001151581526020016000151581526020016000151581526020016000801b815250600160008373ffffffffffffffffffffffffffffffffffffffff1673ffffffffffffffffffffffffffffffffffffffff16815260200190815260200160002060008201518160000160006101000a81548160ff02191690831515021790555060208201518160000160016101000a81548160ff02191690831515021790555060408201518160000160026101000a81548160ff021916908315150217905550606082015181600101559050506003819080600181540180825580915050600190039060005260206000200160009091909190916101000a81548173ffffffffffffffffffffffffffffffffffffffff021916908373ffffffffffffffffffffffffffffffffffffffff1602179055507fb6be2187d059cc2a55fe29e0e503b566e1e0f8c8780096e185429350acffd3dd816040516107369190611928565b60405180910390a150565b600160003373ffffffffffffffffffffffffffffffffffffffff1673ffffffffffffffffffffffffffffffffffffffff16815260200190815260200160002060000160009054906101000a900460ff166107d0576040517f08c379a00000000000000000000000000000000000000000000000000000000081526004016107c790611b88565b60405180910390fd5b600060149054906101000a900460ff1680156107f95750600060159054906101000a900460ff16155b610838576040517f08c379a000000000000000000000000000000000000000000000000000000000815260040161082f90611bf4565b60405180910390fd5b600160003373ffffffffffffffffffffffffffffffffffffffff1673ffffffffffffffffffffffffffffffffffffffff16815260200190815260200160002060000160019054906101000a900460ff16156108c8576040517f08c379a00000000000000000000000000000000000000000000000000000000081526004016108bf90611c86565b60405180910390fd5b80600160003373ffffffffffffffffffffffffffffffffffffffff1673ffffffffffffffffffffffffffffffffffffffff1681526020019081526020016000206001018190555060018060003373ffffffffffffffffffffffffffffffffffffffff1673ffffffffffffffffffffffffffffffffffffffff16815260200190815260200160002060000160016101000a81548160ff0219169083151502179055507fd8333eeb60b5f1fb9e6e2c3c665fb5ec81dee6d37fcd17dda27d169009d6c7eb336040516109989190611928565b60405180910390a150565b600060149054906101000a900460ff1681565b60008054906101000a900473ffffffffffffffffffffffffffffffffffffffff1673ffffffffffffffffffffffffffffffffffffffff163373ffffffffffffffffffffffffffffffffffffffff1614610a44576040517f08c379a0000000000000000000000000000000000000000000000000000000008152600401610a3b90611ab0565b60405180910390fd5b60026040518060400160405280838152602001600081525090806001815401808255809150506001900390600052602060002090600202016000909190919091506000820151816000019081610a9a9190611e52565b506020820151816001015550507ff29562dad1599aea0ebb142466120aab326d5efa8f839df82a9c064bf78e893881604051610ad69190611f24565b60405180910390a150565b60008054906101000a900473ffffffffffffffffffffffffffffffffffffffff1673ffffffffffffffffffffffffffffffffffffffff163373ffffffffffffffffffffffffffffffffffffffff1614610b6f576040517f08c379a0000000000000000000000000000000000000000000000000000000008152600401610b6690611ab0565b60405180910390fd5b600060149054906101000a900460ff16158015610b995750600060159054906101000a900460ff16155b610bd8576040517f08c379a0000000000000000000000000000000000000000000000000000000008152600401610bcf90611f92565b60405180910390fd5b6001600060146101000a81548160ff0219169083151502179055507f9069a1a16ace751e8690f383e12f87b01e8488ba387e626810bd113fef0417f96001604051610c2391906116b5565b60405180910390a1565b600160003373ffffffffffffffffffffffffffffffffffffffff1673ffffffffffffffffffffffffffffffffffffffff16815260200190815260200160002060000160009054906101000a900460ff16610cbc576040517f08c379a0000000000000000000000000000000000000000000000000000000008152600401610cb390611b88565b60405180910390fd5b600060149054906101000a900460ff16158015610ce55750600060159054906101000a900460ff165b610d24576040517f08c379a0000000000000000000000000000000000000000000000000000000008152600401610d1b90611ffe565b60405180910390fd5b600160003373ffffffffffffffffffffffffffffffffffffffff1673ffffffffffffffffffffffffffffffffffffffff16815260200190815260200160002060000160029054906101000a900460ff1615610db4576040517f08c379a0000000000000000000000000000000000000000000000000000000008152600401610dab90612090565b60405180910390fd5b6002805490508210610dfb576040517f08c379a0000000000000000000000000000000000000000000000000000000008152600401610df2906119ef565b60405180910390fd5b6000338383604051602001610e1293929190612155565b604051602081830303815290604052805190602001209050600160003373ffffffffffffffffffffffffffffffffffffffff1673ffffffffffffffffffffffffffffffffffffffff168152602001908152602001600020600101548114610eae576040517f08c379a0000000000000000000000000000000000000000000000000000000008152600401610ea5906121da565b60405180910390fd5b60018060003373ffffffffffffffffffffffffffffffffffffffff1673ffffffffffffffffffffffffffffffffffffffff16815260200190815260200160002060000160026101000a81548160ff02191690831515021790555060028381548110610f1c57610f1b611a0f565b5b90600052602060002090600202016001016000815480929190610f3e90612229565b91905055507f522b45c661375abb939dc17b4b600412c93af64fcbe24859a73539d01bb4eec83384604051610f74929190612271565b60405180910390a1505050565b60016020528060005260406000206000915090508060000160009054906101000a900460ff16908060000160019054906101000a900460ff16908060000160029054906101000a900460ff16908060010154905084565b60008054906101000a900473ffffffffffffffffffffffffffffffffffffffff1673ffffffffffffffffffffffffffffffffffffffff163373ffffffffffffffffffffffffffffffffffffffff1614611066576040517f08c379a000000000000000000000000000000000000000000000000000000000815260040161105d90611ab0565b60405180910390fd5b600060159054906101000a900460ff166110b5576040517f08c379a00000000000000000000000000000000000000000000000000000000081526004016110ac90611ffe565b60405180910390fd5b60008060156101000a81548160ff0219169083151502179055507fe01f3c5b3c180379b6c2bf4f8701e04cb308c6f958190156ae33cc2321e95c9960006040516110ff91906116b5565b60405180910390a17f320334d6daae0e76de8bb959e7d100c016bb1b42e6158dce713fc350a5d8b5be60405160405180910390a160005b6003805490508110156112945760006003828154811061115957611158611a0f565b5b9060005260206000200160009054906101000a900473ffffffffffffffffffffffffffffffffffffffff1690506000600160008373ffffffffffffffffffffffffffffffffffffffff1673ffffffffffffffffffffffffffffffffffffffff16815260200190815260200160002060000160016101000a81548160ff0219169083151502179055506000600160008373ffffffffffffffffffffffffffffffffffffffff1673ffffffffffffffffffffffffffffffffffffffff16815260200190815260200160002060000160026101000a81548160ff0219169083151502179055506000801b600160008373ffffffffffffffffffffffffffffffffffffffff1673ffffffffffffffffffffffffffffffffffffffff16815260200190815260200160002060010181905550508080600101915050611136565b50565b6000600280549050905090565b60008054906101000a900473ffffffffffffffffffffffffffffffffffffffff1673ffffffffffffffffffffffffffffffffffffffff163373ffffffffffffffffffffffffffffffffffffffff1614611332576040517f08c379a000000000000000000000000000000000000000000000000000000000815260040161132990611ab0565b60405180910390fd5b600060149054906101000a900460ff16611381576040517f08c379a0000000000000000000000000000000000000000000000000000000008152600401611378906122e6565b60405180910390fd5b60008060146101000a81548160ff0219169083151502179055506001600060156101000a81548160ff0219169083151502179055507fe01f3c5b3c180379b6c2bf4f8701e04cb308c6f958190156ae33cc2321e95c9960016040516113e691906116b5565b60405180910390a1565b6003818154811061140057600080fd5b906000526020600020016000915054906101000a900473ffffffffffffffffffffffffffffffffffffffff1681565b600060159054906101000a900460ff1681565b60008054906101000a900473ffffffffffffffffffffffffffffffffffffffff1681565b6000604051905090565b600080fd5b600080fd5b6000819050919050565b61148d8161147a565b811461149857600080fd5b50565b6000813590506114aa81611484565b92915050565b6000602082840312156114c6576114c5611470565b5b60006114d48482850161149b565b91505092915050565b600081519050919050565b600082825260208201905092915050565b60005b838110156115175780820151818401526020810190506114fc565b60008484015250505050565b6000601f19601f8301169050919050565b600061153f826114dd565b61154981856114e8565b93506115598185602086016114f9565b61156281611523565b840191505092915050565b6115768161147a565b82525050565b600060408201905081810360008301526115968185611534565b90506115a5602083018461156d565b9392505050565b600073ffffffffffffffffffffffffffffffffffffffff82169050919050565b60006115d7826115ac565b9050919050565b6115e7816115cc565b81146115f257600080fd5b50565b600081359050611604816115de565b92915050565b6000602082840312156116205761161f611470565b5b600061162e848285016115f5565b91505092915050565b6000819050919050565b61164a81611637565b811461165557600080fd5b50565b60008135905061166781611641565b92915050565b60006020828403121561168357611682611470565b5b600061169184828501611658565b91505092915050565b60008115159050919050565b6116af8161169a565b82525050565b60006020820190506116ca60008301846116a6565b92915050565b600080fd5b600080fd5b7f4e487b7100000000000000000000000000000000000000000000000000000000600052604160045260246000fd5b61171282611523565b810181811067ffffffffffffffff82111715611731576117306116da565b5b80604052505050565b6000611744611466565b90506117508282611709565b919050565b600067ffffffffffffffff8211156117705761176f6116da565b5b61177982611523565b9050602081019050919050565b82818337600083830152505050565b60006117a86117a384611755565b61173a565b9050828152602081018484840111156117c4576117c36116d5565b5b6117cf848285611786565b509392505050565b600082601f8301126117ec576117eb6116d0565b5b81356117fc848260208601611795565b91505092915050565b60006020828403121561181b5761181a611470565b5b600082013567ffffffffffffffff81111561183957611838611475565b5b611845848285016117d7565b91505092915050565b6000806040838503121561186557611864611470565b5b60006118738582860161149b565b925050602083013567ffffffffffffffff81111561189457611893611475565b5b6118a0858286016117d7565b9150509250929050565b6118b381611637565b82525050565b60006080820190506118ce60008301876116a6565b6118db60208301866116a6565b6118e860408301856116a6565b6118f560608301846118aa565b95945050505050565b6000602082019050611913600083018461156d565b92915050565b611922816115cc565b82525050565b600060208201905061193d6000830184611919565b92915050565b7f4e487b7100000000000000000000000000000000000000000000000000000000600052602260045260246000fd5b6000600282049050600182168061198a57607f821691505b60208210810361199d5761199c611943565b5b50919050565b7f496e76616c69642063616e64696461746520696e646578000000000000000000600082015250565b60006119d96017836114e8565b91506119e4826119a3565b602082019050919050565b60006020820190508181036000830152611a08816119cc565b9050919050565b7f4e487b7100000000000000000000000000000000000000000000000000000000600052603260045260246000fd5b7f4f6e6c792061646d696e2063616e20706572666f726d2074686973206163746960008201527f6f6e000000000000000000000000000000000000000000000000000000000000602082015250565b6000611a9a6022836114e8565b9150611aa582611a3e565b604082019050919050565b60006020820190508181036000830152611ac981611a8d565b9050919050565b7f566f74657220697320616c726561647920726567697374657265640000000000600082015250565b6000611b06601b836114e8565b9150611b1182611ad0565b602082019050919050565b60006020820190508181036000830152611b3581611af9565b9050919050565b7f596f7520617265206e6f74207265676973746572656400000000000000000000600082015250565b6000611b726016836114e8565b9150611b7d82611b3c565b602082019050919050565b60006020820190508181036000830152611ba181611b65565b9050919050565b7f436f6d6d6974207068617365206973206e6f7420616374697665000000000000600082015250565b6000611bde601a836114e8565b9150611be982611ba8565b602082019050919050565b60006020820190508181036000830152611c0d81611bd1565b9050919050565b7f596f75206861766520616c726561647920636f6d6d697474656420796f75722060008201527f766f746500000000000000000000000000000000000000000000000000000000602082015250565b6000611c706024836114e8565b9150611c7b82611c14565b604082019050919050565b60006020820190508181036000830152611c9f81611c63565b9050919050565b60008190508160005260206000209050919050565b60006020601f8301049050919050565b600082821b905092915050565b600060088302611d087fffffffffffffffffffffffffffffffffffffffffffffffffffffffffffffffff82611ccb565b611d128683611ccb565b95508019841693508086168417925050509392505050565b6000819050919050565b6000611d4f611d4a611d458461147a565b611d2a565b61147a565b9050919050565b6000819050919050565b611d6983611d34565b611d7d611d7582611d56565b848454611cd8565b825550505050565b600090565b611d92611d85565b611d9d818484611d60565b505050565b5b81811015611dc157611db6600082611d8a565b600181019050611da3565b5050565b601f821115611e0657611dd781611ca6565b611de084611cbb565b81016020851015611def578190505b611e03611dfb85611cbb565b830182611da2565b50505b505050565b600082821c905092915050565b6000611e2960001984600802611e0b565b1980831691505092915050565b6000611e428383611e18565b9150826002028217905092915050565b611e5b826114dd565b67ffffffffffffffff811115611e7457611e736116da565b5b611e7e8254611972565b611e89828285611dc5565b600060209050601f831160018114611ebc5760008415611eaa578287015190505b611eb48582611e36565b865550611f1c565b601f198416611eca86611ca6565b60005b82811015611ef257848901518255600182019150602085019450602081019050611ecd565b86831015611f0f5784890151611f0b601f891682611e18565b8355505b6001600288020188555050505b505050505050565b60006020820190508181036000830152611f3e8184611534565b905092915050565b7f566f74696e6720616c7265616479206163746976650000000000000000000000600082015250565b6000611f7c6015836114e8565b9150611f8782611f46565b602082019050919050565b60006020820190508181036000830152611fab81611f6f565b9050919050565b7f52657665616c207068617365206973206e6f7420616374697665000000000000600082015250565b6000611fe8601a836114e8565b9150611ff382611fb2565b602082019050919050565b6000602082019050818103600083015261201781611fdb565b9050919050565b7f596f75206861766520616c72656164792072657665616c656420796f7572207660008201527f6f74650000000000000000000000000000000000000000000000000000000000602082015250565b600061207a6023836114e8565b91506120858261201e565b604082019050919050565b600060208201905081810360008301526120a98161206d565b9050919050565b60008160601b9050919050565b60006120c8826120b0565b9050919050565b60006120da826120bd565b9050919050565b6120f26120ed826115cc565b6120cf565b82525050565b6000819050919050565b61211361210e8261147a565b6120f8565b82525050565b600081905092915050565b600061212f826114dd565b6121398185612119565b93506121498185602086016114f9565b80840191505092915050565b600061216182866120e1565b6014820191506121718285612102565b6020820191506121818284612124565b9150819050949350505050565b7f566f746520636f6d6d69746d656e7420646f6573206e6f74206d617463680000600082015250565b60006121c4601e836114e8565b91506121cf8261218e565b602082019050919050565b600060208201905081810360008301526121f3816121b7565b9050919050565b7f4e487b7100000000000000000000000000000000000000000000000000000000600052601160045260246000fd5b60006122348261147a565b91507fffffffffffffffffffffffffffffffffffffffffffffffffffffffffffffffff8203612266576122656121fa565b5b600182019050919050565b60006040820190506122866000830185611919565b612293602083018461156d565b9392505050565b7f566f74696e67206973206e6f7420616374697665000000000000000000000000600082015250565b60006122d06014836114e8565b91506122db8261229a565b602082019050919050565b600060208201905081810360008301526122ff816122c3565b905091905056fea26469706673582212208a8ea76551b199026b115e6da07735f661a7fcd867238c3cac262e4d057d898864736f6c634300081b0033",
  "linkReferences": {},
  "deployedLinkReferences": {}
}