{
  "_format": "hh-sol-artifact-1",
  "contractName": "BallotCast",
  "sourceName": "contracts/ballotcast.sol",
  "abi": [
    {
      "inputs": [],
      "stateMutability": "nonpayable",
      "type": "constructor"
    },
    {
      "anonymous": false,
      "inputs": [
        {
          "indexed": false,
          "internalType": "string",
          "name": "name",
          "type": "string"
        }
      ],
      "name": "CandidateAdded",
      "type": "event"
    },
    {
      "anonymous": false,
      "inputs": [
        {
          "indexed": false,
          "internalType": "bool",
          "name": "active",
          "type": "bool"
        }
      ],
      "name": "RevealPhaseStatusChanged",
      "type": "event"
    },
    {
      "anonymous": false,
      "inputs": [],
      "name": "TallyCompleted",
      "type": "event"
    },
    {
      "anonymous": false,
      "inputs": [
        {
          "indexed": false,
          "internalType": "address",
          "name": "voter",
          "type": "address"
        }
      ],
      "name": "VoteCommitted",
      "type": "event"
    },
    {
      "anonymous": false,
      "inputs": [
        {
          "indexed": false,
          "internalType": "address",
          "name": "voter",
          "type": "address"
        },
        {
          "indexed": false,
          "internalType": "uint256",
          "name": "candidateIndex",
          "type": "uint256"
        }
      ],
      "name": "VoteRevealed",
      "type": "event"
    },
    {
      "anonymous": false,
      "inputs": [
        {
          "indexed": false,
          "internalType": "address",
          "name": "voter",
          "type": "address"
        }
      ],
      "name": "VoterRegistered",
      "type": "event"
    },
    {
      "anonymous": false,
      "inputs": [
        {
          "indexed": false,
          "internalType": "bool",
          "name": "active",
          "type": "bool"
        }
      ],
      "name": "VotingStatusChanged",
      "type": "event"
    },
    {
      "inputs": [
        {
          "internalType": "string",
          "name": "_name",
          "type": "string"
        }
      ],
      "name": "addCandidate",
      "outputs": [],
      "stateMutability": "nonpayable",
      "type": "function"
    },
    {
      "inputs": [],
      "name": "admin",
      "outputs": [
        {
          "internalType": "address",
          "name": "",
          "type": "address"
        }
      ],
      "stateMutability": "view",
      "type": "function"
    },
    {
      "inputs": [
        {
          "internalType": "uint256",
          "name": "",
          "type": "uint256"
        }
      ],
      "name": "candidates",
      "outputs": [
        {
          "internalType": "string",
          "name": "name",
          "type": "string"
        },
        {
          "internalType": "uint256",
          "name": "voteCount",
          "type": "uint256"
        }
      ],
      "stateMutability": "view",
      "type": "function"
    },
    {
      "inputs": [
        {
          "internalType": "bytes32",
          "name": "_voteCommitment",
          "type": "bytes32"
        }
      ],
      "name": "commitVote",
      "outputs": [],
      "stateMutability": "nonpayable",
      "type": "function"
    },
    {
      "inputs": [],
      "name": "endRevealPhase",
      "outputs": [],
      "stateMutability": "nonpayable",
      "type": "function"
    },
    {
      "inputs": [
        {
          "internalType": "uint256",
          "name": "_index",
          "type": "uint256"
        }
      ],
      "name": "getCandidate",
      "outputs": [
        {
          "internalType": "string",
          "name": "",
          "type": "string"
        },
        {
          "internalType": "uint256",
          "name": "",
          "type": "uint256"
        }
      ],
      "stateMutability": "view",
      "type": "function"
    },
    {
      "inputs": [],
      "name": "getCandidatesCount",
      "outputs": [
        {
          "internalType": "uint256",
          "name": "",
          "type": "uint256"
        }
      ],
      "stateMutability": "view",
      "type": "function"
    },
    {
      "inputs": [
        {
          "internalType": "address",
          "name": "_voter",
          "type": "address"
        }
      ],
      "name": "registerVoter",
      "outputs": [],
      "stateMutability": "nonpayable",
      "type": "function"
    },
    {
      "inputs": [],
      "name": "revealPhaseActive",
      "outputs": [
        {
          "internalType": "bool",
          "name": "",
          "type": "bool"
        }
      ],
      "stateMutability": "view",
      "type": "function"
    },
    {
      "inputs": [
        {
          "internalType": "uint256",
          "name": "_candidateIndex",
          "type": "uint256"
        },
        {
          "internalType": "string",
          "name": "_nonce",
          "type": "string"
        }
      ],
      "name": "revealVote",
      "outputs": [],
      "stateMutability": "nonpayable",
      "type": "function"
    },
    {
      "inputs": [],
      "name": "startCommitPhase",
      "outputs": [],
      "stateMutability": "nonpayable",
      "type": "function"
    },
    {
      "inputs": [],
      "name": "startRevealPhase",
      "outputs": [],
      "stateMutability": "nonpayable",
      "type": "function"
    },
    {
      "inputs": [
        {
          "internalType": "address",
          "name": "",
          "type": "address"
        }
      ],
      "name": "voters",
      "outputs": [
        {
          "internalType": "bool",
          "name": "isRegistered",
          "type": "bool"
        },
        {
          "internalType": "bool",
          "name": "hasVoted",
          "type": "bool"
        },
        {
          "internalType": "bytes32",
          "name": "voteCommitment",
          "type": "bytes32"
        }
      ],
      "stateMutability": "view",
      "type": "function"
    },
    {
      "inputs": [],
      "name": "votingActive",
      "outputs": [
        {
          "internalType": "bool",
          "name": "",
          "type": "bool"
        }
      ],
      "stateMutability": "view",
      "type": "function"
    }
  ],
  "bytecode": "0x6080604052348015600f57600080fd5b50336000806101000a81548173ffffffffffffffffffffffffffffffffffffffff021916908373ffffffffffffffffffffffffffffffffffffffff160217905550611ffd8061005f6000396000f3fe608060405234801561001057600080fd5b50600436106100ea5760003560e01c8063772c81611161008c578063bb9aa28f11610066578063bb9aa28f14610225578063c6fd5d4e14610243578063e007cb811461024d578063f851a4401461026b576100ea565b8063772c8161146101cd578063a3ec138d146101e9578063afbde9631461021b576100ea565b80633e858923116100c85780633e8589231461016d578063408e272714610189578063462e91ec146101a75780637183f43a146101c3576100ea565b80633477ee2e146100ef57806335b8e8201461012057806338db6dd314610151575b600080fd5b610109600480360381019061010491906111d8565b610289565b6040516101179291906112a4565b60405180910390f35b61013a600480360381019061013591906111d8565b610345565b6040516101489291906112a4565b60405180910390f35b61016b60048036038101906101669190611332565b610471565b005b61018760048036038101906101829190611395565b610679565b005b610191610881565b60405161019e91906113dd565b60405180910390f35b6101c160048036038101906101bc919061152d565b610894565b005b6101cb6109bf565b005b6101e760048036038101906101e29190611576565b610b0b565b005b61020360048036038101906101fe9190611332565b610e5d565b604051610212939291906115e1565b60405180910390f35b610223610ea1565b005b61022d610ffe565b60405161023a9190611618565b60405180910390f35b61024b61100b565b005b610255611157565b60405161026291906113dd565b60405180910390f35b61027361116a565b6040516102809190611642565b60405180910390f35b6002818154811061029957600080fd5b90600052602060002090600202016000915090508060000180546102bc9061168c565b80601f01602080910402602001604051908101604052809291908181526020018280546102e89061168c565b80156103355780601f1061030a57610100808354040283529160200191610335565b820191906000526020600020905b81548152906001019060200180831161031857829003601f168201915b5050505050908060010154905082565b606060006002805490508310610390576040517f08c379a000000000000000000000000000000000000000000000000000000000815260040161038790611709565b60405180910390fd5b6000600284815481106103a6576103a5611729565b5b90600052602060002090600202016040518060400160405290816000820180546103cf9061168c565b80601f01602080910402602001604051908101604052809291908181526020018280546103fb9061168c565b80156104485780601f1061041d57610100808354040283529160200191610448565b820191906000526020600020905b81548152906001019060200180831161042b57829003601f168201915b505050505081526020016001820154815250509050806000015181602001519250925050915091565b60008054906101000a900473ffffffffffffffffffffffffffffffffffffffff1673ffffffffffffffffffffffffffffffffffffffff163373ffffffffffffffffffffffffffffffffffffffff16146104ff576040517f08c379a00000000000000000000000000000000000000000000000000000000081526004016104f6906117ca565b60405180910390fd5b600160008273ffffffffffffffffffffffffffffffffffffffff1673ffffffffffffffffffffffffffffffffffffffff16815260200190815260200160002060000160009054906101000a900460ff161561058f576040517f08c379a000000000000000000000000000000000000000000000000000000000815260040161058690611836565b60405180910390fd5b60405180606001604052806001151581526020016000151581526020016000801b815250600160008373ffffffffffffffffffffffffffffffffffffffff1673ffffffffffffffffffffffffffffffffffffffff16815260200190815260200160002060008201518160000160006101000a81548160ff02191690831515021790555060208201518160000160016101000a81548160ff021916908315150217905550604082015181600101559050507fb6be2187d059cc2a55fe29e0e503b566e1e0f8c8780096e185429350acffd3dd8160405161066e9190611642565b60405180910390a150565b600160003373ffffffffffffffffffffffffffffffffffffffff1673ffffffffffffffffffffffffffffffffffffffff16815260200190815260200160002060000160009054906101000a900460ff16610708576040517f08c379a00000000000000000000000000000000000000000000000000000000081526004016106ff906118a2565b60405180910390fd5b600060149054906101000a900460ff1680156107315750600060159054906101000a900460ff16155b610770576040517f08c379a00000000000000000000000000000000000000000000000000000000081526004016107679061190e565b60405180910390fd5b600160003373ffffffffffffffffffffffffffffffffffffffff1673ffffffffffffffffffffffffffffffffffffffff16815260200190815260200160002060000160019054906101000a900460ff1615610800576040517f08c379a00000000000000000000000000000000000000000000000000000000081526004016107f7906119a0565b60405180910390fd5b80600160003373ffffffffffffffffffffffffffffffffffffffff1673ffffffffffffffffffffffffffffffffffffffff168152602001908152602001600020600101819055507fd8333eeb60b5f1fb9e6e2c3c665fb5ec81dee6d37fcd17dda27d169009d6c7eb336040516108769190611642565b60405180910390a150565b600060149054906101000a900460ff1681565b60008054906101000a900473ffffffffffffffffffffffffffffffffffffffff1673ffffffffffffffffffffffffffffffffffffffff163373ffffffffffffffffffffffffffffffffffffffff1614610922576040517f08c379a0000000000000000000000000000000000000000000000000000000008152600401610919906117ca565b60405180910390fd5b600260405180604001604052808381526020016000815250908060018154018082558091505060019003906000526020600020906002020160009091909190915060008201518160000190816109789190611b6c565b506020820151816001015550507ff29562dad1599aea0ebb142466120aab326d5efa8f839df82a9c064bf78e8938816040516109b49190611c3e565b60405180910390a150565b60008054906101000a900473ffffffffffffffffffffffffffffffffffffffff1673ffffffffffffffffffffffffffffffffffffffff163373ffffffffffffffffffffffffffffffffffffffff1614610a4d576040517f08c379a0000000000000000000000000000000000000000000000000000000008152600401610a44906117ca565b60405180910390fd5b600060149054906101000a900460ff16158015610a775750600060159054906101000a900460ff16155b610ab6576040517f08c379a0000000000000000000000000000000000000000000000000000000008152600401610aad90611cac565b60405180910390fd5b6001600060146101000a81548160ff0219169083151502179055507f9069a1a16ace751e8690f383e12f87b01e8488ba387e626810bd113fef0417f96001604051610b0191906113dd565b60405180910390a1565b600160003373ffffffffffffffffffffffffffffffffffffffff1673ffffffffffffffffffffffffffffffffffffffff16815260200190815260200160002060000160009054906101000a900460ff16610b9a576040517f08c379a0000000000000000000000000000000000000000000000000000000008152600401610b91906118a2565b60405180910390fd5b600060149054906101000a900460ff16158015610bc35750600060159054906101000a900460ff165b610c02576040517f08c379a0000000000000000000000000000000000000000000000000000000008152600401610bf990611d18565b60405180910390fd5b600160003373ffffffffffffffffffffffffffffffffffffffff1673ffffffffffffffffffffffffffffffffffffffff16815260200190815260200160002060000160019054906101000a900460ff1615610c92576040517f08c379a0000000000000000000000000000000000000000000000000000000008152600401610c8990611daa565b60405180910390fd5b6002805490508210610cd9576040517f08c379a0000000000000000000000000000000000000000000000000000000008152600401610cd090611709565b60405180910390fd5b60008282604051602001610cee929190611e27565b604051602081830303815290604052805190602001209050600160003373ffffffffffffffffffffffffffffffffffffffff1673ffffffffffffffffffffffffffffffffffffffff168152602001908152602001600020600101548114610d8a576040517f08c379a0000000000000000000000000000000000000000000000000000000008152600401610d8190611e9b565b60405180910390fd5b60018060003373ffffffffffffffffffffffffffffffffffffffff1673ffffffffffffffffffffffffffffffffffffffff16815260200190815260200160002060000160016101000a81548160ff02191690831515021790555060028381548110610df857610df7611729565b5b90600052602060002090600202016001016000815480929190610e1a90611eea565b91905055507f522b45c661375abb939dc17b4b600412c93af64fcbe24859a73539d01bb4eec83384604051610e50929190611f32565b60405180910390a1505050565b60016020528060005260406000206000915090508060000160009054906101000a900460ff16908060000160019054906101000a900460ff16908060010154905083565b60008054906101000a900473ffffffffffffffffffffffffffffffffffffffff1673ffffffffffffffffffffffffffffffffffffffff163373ffffffffffffffffffffffffffffffffffffffff1614610f2f576040517f08c379a0000000000000000000000000000000000000000000000000000000008152600401610f26906117ca565b60405180910390fd5b600060159054906101000a900460ff16610f7e576040517f08c379a0000000000000000000000000000000000000000000000000000000008152600401610f7590611d18565b60405180910390fd5b60008060156101000a81548160ff0219169083151502179055507fe01f3c5b3c180379b6c2bf4f8701e04cb308c6f958190156ae33cc2321e95c996000604051610fc891906113dd565b60405180910390a17f320334d6daae0e76de8bb959e7d100c016bb1b42e6158dce713fc350a5d8b5be60405160405180910390a1565b6000600280549050905090565b60008054906101000a900473ffffffffffffffffffffffffffffffffffffffff1673ffffffffffffffffffffffffffffffffffffffff163373ffffffffffffffffffffffffffffffffffffffff1614611099576040517f08c379a0000000000000000000000000000000000000000000000000000000008152600401611090906117ca565b60405180910390fd5b600060149054906101000a900460ff166110e8576040517f08c379a00000000000000000000000000000000000000000000000000000000081526004016110df90611fa7565b60405180910390fd5b60008060146101000a81548160ff0219169083151502179055506001600060156101000a81548160ff0219169083151502179055507fe01f3c5b3c180379b6c2bf4f8701e04cb308c6f958190156ae33cc2321e95c99600160405161114d91906113dd565b60405180910390a1565b600060159054906101000a900460ff1681565b60008054906101000a900473ffffffffffffffffffffffffffffffffffffffff1681565b6000604051905090565b600080fd5b600080fd5b6000819050919050565b6111b5816111a2565b81146111c057600080fd5b50565b6000813590506111d2816111ac565b92915050565b6000602082840312156111ee576111ed611198565b5b60006111fc848285016111c3565b91505092915050565b600081519050919050565b600082825260208201905092915050565b60005b8381101561123f578082015181840152602081019050611224565b60008484015250505050565b6000601f19601f8301169050919050565b600061126782611205565b6112718185611210565b9350611281818560208601611221565b61128a8161124b565b840191505092915050565b61129e816111a2565b82525050565b600060408201905081810360008301526112be818561125c565b90506112cd6020830184611295565b9392505050565b600073ffffffffffffffffffffffffffffffffffffffff82169050919050565b60006112ff826112d4565b9050919050565b61130f816112f4565b811461131a57600080fd5b50565b60008135905061132c81611306565b92915050565b60006020828403121561134857611347611198565b5b60006113568482850161131d565b91505092915050565b6000819050919050565b6113728161135f565b811461137d57600080fd5b50565b60008135905061138f81611369565b92915050565b6000602082840312156113ab576113aa611198565b5b60006113b984828501611380565b91505092915050565b60008115159050919050565b6113d7816113c2565b82525050565b60006020820190506113f260008301846113ce565b92915050565b600080fd5b600080fd5b7f4e487b7100000000000000000000000000000000000000000000000000000000600052604160045260246000fd5b61143a8261124b565b810181811067ffffffffffffffff8211171561145957611458611402565b5b80604052505050565b600061146c61118e565b90506114788282611431565b919050565b600067ffffffffffffffff82111561149857611497611402565b5b6114a18261124b565b9050602081019050919050565b82818337600083830152505050565b60006114d06114cb8461147d565b611462565b9050828152602081018484840111156114ec576114eb6113fd565b5b6114f78482856114ae565b509392505050565b600082601f830112611514576115136113f8565b5b81356115248482602086016114bd565b91505092915050565b60006020828403121561154357611542611198565b5b600082013567ffffffffffffffff8111156115615761156061119d565b5b61156d848285016114ff565b91505092915050565b6000806040838503121561158d5761158c611198565b5b600061159b858286016111c3565b925050602083013567ffffffffffffffff8111156115bc576115bb61119d565b5b6115c8858286016114ff565b9150509250929050565b6115db8161135f565b82525050565b60006060820190506115f660008301866113ce565b61160360208301856113ce565b61161060408301846115d2565b949350505050565b600060208201905061162d6000830184611295565b92915050565b61163c816112f4565b82525050565b60006020820190506116576000830184611633565b92915050565b7f4e487b7100000000000000000000000000000000000000000000000000000000600052602260045260246000fd5b600060028204905060018216806116a457607f821691505b6020821081036116b7576116b661165d565b5b50919050565b7f496e76616c69642063616e64696461746520696e646578000000000000000000600082015250565b60006116f3601783611210565b91506116fe826116bd565b602082019050919050565b60006020820190508181036000830152611722816116e6565b9050919050565b7f4e487b7100000000000000000000000000000000000000000000000000000000600052603260045260246000fd5b7f4f6e6c792061646d696e2063616e20706572666f726d2074686973206163746960008201527f6f6e000000000000000000000000000000000000000000000000000000000000602082015250565b60006117b4602283611210565b91506117bf82611758565b604082019050919050565b600060208201905081810360008301526117e3816117a7565b9050919050565b7f566f74657220697320616c726561647920726567697374657265640000000000600082015250565b6000611820601b83611210565b915061182b826117ea565b602082019050919050565b6000602082019050818103600083015261184f81611813565b9050919050565b7f596f7520617265206e6f74207265676973746572656400000000000000000000600082015250565b600061188c601683611210565b915061189782611856565b602082019050919050565b600060208201905081810360008301526118bb8161187f565b9050919050565b7f436f6d6d6974207068617365206973206e6f7420616374697665000000000000600082015250565b60006118f8601a83611210565b9150611903826118c2565b602082019050919050565b60006020820190508181036000830152611927816118eb565b9050919050565b7f596f75206861766520616c726561647920636f6d6d697474656420796f75722060008201527f766f746500000000000000000000000000000000000000000000000000000000602082015250565b600061198a602483611210565b91506119958261192e565b604082019050919050565b600060208201905081810360008301526119b98161197d565b9050919050565b60008190508160005260206000209050919050565b60006020601f8301049050919050565b600082821b905092915050565b600060088302611a227fffffffffffffffffffffffffffffffffffffffffffffffffffffffffffffffff826119e5565b611a2c86836119e5565b95508019841693508086168417925050509392505050565b6000819050919050565b6000611a69611a64611a5f846111a2565b611a44565b6111a2565b9050919050565b6000819050919050565b611a8383611a4e565b611a97611a8f82611a70565b8484546119f2565b825550505050565b600090565b611aac611a9f565b611ab7818484611a7a565b505050565b5b81811015611adb57611ad0600082611aa4565b600181019050611abd565b5050565b601f821115611b2057611af1816119c0565b611afa846119d5565b81016020851015611b09578190505b611b1d611b15856119d5565b830182611abc565b50505b505050565b600082821c905092915050565b6000611b4360001984600802611b25565b1980831691505092915050565b6000611b5c8383611b32565b9150826002028217905092915050565b611b7582611205565b67ffffffffffffffff811115611b8e57611b8d611402565b5b611b98825461168c565b611ba3828285611adf565b600060209050601f831160018114611bd65760008415611bc4578287015190505b611bce8582611b50565b865550611c36565b601f198416611be4866119c0565b60005b82811015611c0c57848901518255600182019150602085019450602081019050611be7565b86831015611c295784890151611c25601f891682611b32565b8355505b6001600288020188555050505b505050505050565b60006020820190508181036000830152611c58818461125c565b905092915050565b7f566f74696e6720616c7265616479206163746976650000000000000000000000600082015250565b6000611c96601583611210565b9150611ca182611c60565b602082019050919050565b60006020820190508181036000830152611cc581611c89565b9050919050565b7f52657665616c207068617365206973206e6f7420616374697665000000000000600082015250565b6000611d02601a83611210565b9150611d0d82611ccc565b602082019050919050565b60006020820190508181036000830152611d3181611cf5565b9050919050565b7f596f75206861766520616c72656164792072657665616c656420796f7572207660008201527f6f74650000000000000000000000000000000000000000000000000000000000602082015250565b6000611d94602383611210565b9150611d9f82611d38565b604082019050919050565b60006020820190508181036000830152611dc381611d87565b9050919050565b6000819050919050565b611de5611de0826111a2565b611dca565b82525050565b600081905092915050565b6000611e0182611205565b611e0b8185611deb565b9350611e1b818560208601611221565b80840191505092915050565b6000611e338285611dd4565b602082019150611e438284611df6565b91508190509392505050565b7f566f746520636f6d6d69746d656e7420646f6573206e6f74206d617463680000600082015250565b6000611e85601e83611210565b9150611e9082611e4f565b602082019050919050565b60006020820190508181036000830152611eb481611e78565b9050919050565b7f4e487b7100000000000000000000000000000000000000000000000000000000600052601160045260246000fd5b6000611ef5826111a2565b91507fffffffffffffffffffffffffffffffffffffffffffffffffffffffffffffffff8203611f2757611f26611ebb565b5b600182019050919050565b6000604082019050611f476000830185611633565b611f546020830184611295565b9392505050565b7f566f74696e67206973206e6f7420616374697665000000000000000000000000600082015250565b6000611f91601483611210565b9150611f9c82611f5b565b602082019050919050565b60006020820190508181036000830152611fc081611f84565b905091905056fea2646970667358221220b8cabbc236439f7ed01db62cd61fc1323f0ba5ed1478132db916901123419c4f64736f6c634300081b0033",
  "linkReferences": {},
  "deployedLinkReferences": {}
}