{
  "_format": "hh-sol-artifact-1",
  "contractName": "BallotCast",
  "sourceName": "contracts/ballotcast.sol",
  "abi": [
    {
      "inputs": [],
      "stateMutability": "nonpayable",
      "type": "constructor"
    },
    {
      "inputs": [
        {
          "internalType": "string",
          "name": "_name",
          "type": "string"
        }
      ],
      "name": "addCandidate",
      "outputs": [],
      "stateMutability": "nonpayable",
      "type": "function"
    },
    {
      "inputs": [],
      "name": "admin",
      "outputs": [
        {
          "internalType": "address",
          "name": "",
          "type": "address"
        }
      ],
      "stateMutability": "view",
      "type": "function"
    },
    {
      "inputs": [
        {
          "internalType": "uint256",
          "name": "",
          "type": "uint256"
        }
      ],
      "name": "candidates",
      "outputs": [
        {
          "internalType": "string",
          "name": "name",
          "type": "string"
        },
        {
          "internalType": "uint256",
          "name": "voteCount",
          "type": "uint256"
        }
      ],
      "stateMutability": "view",
      "type": "function"
    },
    {
      "inputs": [
        {
          "internalType": "uint256",
          "name": "_index",
          "type": "uint256"
        }
      ],
      "name": "getCandidate",
      "outputs": [
        {
          "internalType": "string",
          "name": "",
          "type": "string"
        },
        {
          "internalType": "uint256",
          "name": "",
          "type": "uint256"
        }
      ],
      "stateMutability": "view",
      "type": "function"
    },
    {
      "inputs": [],
      "name": "getCandidatesCount",
      "outputs": [
        {
          "internalType": "uint256",
          "name": "",
          "type": "uint256"
        }
      ],
      "stateMutability": "view",
      "type": "function"
    },
    {
      "inputs": [
        {
          "internalType": "address",
          "name": "_voter",
          "type": "address"
        }
      ],
      "name": "registerVoter",
      "outputs": [],
      "stateMutability": "nonpayable",
      "type": "function"
    },
    {
      "inputs": [
        {
          "internalType": "uint256",
          "name": "_candidateIndex",
          "type": "uint256"
        }
      ],
      "name": "vote",
      "outputs": [],
      "stateMutability": "nonpayable",
      "type": "function"
    },
    {
      "inputs": [
        {
          "internalType": "address",
          "name": "",
          "type": "address"
        }
      ],
      "name": "voters",
      "outputs": [
        {
          "internalType": "bool",
          "name": "isRegistered",
          "type": "bool"
        },
        {
          "internalType": "bool",
          "name": "hasVoted",
          "type": "bool"
        },
        {
          "internalType": "uint256",
          "name": "votedCandidate",
          "type": "uint256"
        }
      ],
      "stateMutability": "view",
      "type": "function"
    }
  ],
  "bytecode": "0x6080604052348015600f57600080fd5b50336000806101000a81548173ffffffffffffffffffffffffffffffffffffffff021916908373ffffffffffffffffffffffffffffffffffffffff1602179055506111df8061005f6000396000f3fe608060405234801561001057600080fd5b50600436106100885760003560e01c8063462e91ec1161005b578063462e91ec14610127578063a3ec138d14610143578063bb9aa28f14610175578063f851a4401461019357610088565b80630121b93f1461008d5780633477ee2e146100a957806335b8e820146100da57806338db6dd31461010b575b600080fd5b6100a760048036038101906100a2919061085b565b6101b1565b005b6100c360048036038101906100be919061085b565b610345565b6040516100d1929190610927565b60405180910390f35b6100f460048036038101906100ef919061085b565b610401565b604051610102929190610927565b60405180910390f35b610125600480360381019061012091906109b5565b61052d565b005b610141600480360381019061013c9190610b17565b6106a8565b005b61015d600480360381019061015891906109b5565b61079c565b60405161016c93929190610b7b565b60405180910390f35b61017d6107e0565b60405161018a9190610bb2565b60405180910390f35b61019b6107ed565b6040516101a89190610bdc565b60405180910390f35b6000600160003373ffffffffffffffffffffffffffffffffffffffff1673ffffffffffffffffffffffffffffffffffffffff16815260200190815260200160002090508060000160009054906101000a900460ff16610245576040517f08c379a000000000000000000000000000000000000000000000000000000000815260040161023c90610c43565b60405180910390fd5b8060000160019054906101000a900460ff1615610297576040517f08c379a000000000000000000000000000000000000000000000000000000000815260040161028e90610caf565b60405180910390fd5b60028054905082106102de576040517f08c379a00000000000000000000000000000000000000000000000000000000081526004016102d590610d1b565b60405180910390fd5b60018160000160016101000a81548160ff02191690831515021790555081816001018190555060016002838154811061031a57610319610d3b565b5b9060005260206000209060020201600101600082825461033a9190610d99565b925050819055505050565b6002818154811061035557600080fd5b906000526020600020906002020160009150905080600001805461037890610dfc565b80601f01602080910402602001604051908101604052809291908181526020018280546103a490610dfc565b80156103f15780601f106103c6576101008083540402835291602001916103f1565b820191906000526020600020905b8154815290600101906020018083116103d457829003601f168201915b5050505050908060010154905082565b60606000600280549050831061044c576040517f08c379a000000000000000000000000000000000000000000000000000000000815260040161044390610d1b565b60405180910390fd5b60006002848154811061046257610461610d3b565b5b906000526020600020906002020160405180604001604052908160008201805461048b90610dfc565b80601f01602080910402602001604051908101604052809291908181526020018280546104b790610dfc565b80156105045780601f106104d957610100808354040283529160200191610504565b820191906000526020600020905b8154815290600101906020018083116104e757829003601f168201915b505050505081526020016001820154815250509050806000015181602001519250925050915091565b60008054906101000a900473ffffffffffffffffffffffffffffffffffffffff1673ffffffffffffffffffffffffffffffffffffffff163373ffffffffffffffffffffffffffffffffffffffff16146105bb576040517f08c379a00000000000000000000000000000000000000000000000000000000081526004016105b290610e9f565b60405180910390fd5b600160008273ffffffffffffffffffffffffffffffffffffffff1673ffffffffffffffffffffffffffffffffffffffff16815260200190815260200160002060000160009054906101000a900460ff161561064b576040517f08c379a000000000000000000000000000000000000000000000000000000000815260040161064290610f0b565b60405180910390fd5b60018060008373ffffffffffffffffffffffffffffffffffffffff1673ffffffffffffffffffffffffffffffffffffffff16815260200190815260200160002060000160006101000a81548160ff02191690831515021790555050565b60008054906101000a900473ffffffffffffffffffffffffffffffffffffffff1673ffffffffffffffffffffffffffffffffffffffff163373ffffffffffffffffffffffffffffffffffffffff1614610736576040517f08c379a000000000000000000000000000000000000000000000000000000000815260040161072d90610e9f565b60405180910390fd5b6002604051806040016040528083815260200160008152509080600181540180825580915050600190039060005260206000209060020201600090919091909150600082015181600001908161078c91906110d7565b5060208201518160010155505050565b60016020528060005260406000206000915090508060000160009054906101000a900460ff16908060000160019054906101000a900460ff16908060010154905083565b6000600280549050905090565b60008054906101000a900473ffffffffffffffffffffffffffffffffffffffff1681565b6000604051905090565b600080fd5b600080fd5b6000819050919050565b61083881610825565b811461084357600080fd5b50565b6000813590506108558161082f565b92915050565b6000602082840312156108715761087061081b565b5b600061087f84828501610846565b91505092915050565b600081519050919050565b600082825260208201905092915050565b60005b838110156108c25780820151818401526020810190506108a7565b60008484015250505050565b6000601f19601f8301169050919050565b60006108ea82610888565b6108f48185610893565b93506109048185602086016108a4565b61090d816108ce565b840191505092915050565b61092181610825565b82525050565b6000604082019050818103600083015261094181856108df565b90506109506020830184610918565b9392505050565b600073ffffffffffffffffffffffffffffffffffffffff82169050919050565b600061098282610957565b9050919050565b61099281610977565b811461099d57600080fd5b50565b6000813590506109af81610989565b92915050565b6000602082840312156109cb576109ca61081b565b5b60006109d9848285016109a0565b91505092915050565b600080fd5b600080fd5b7f4e487b7100000000000000000000000000000000000000000000000000000000600052604160045260246000fd5b610a24826108ce565b810181811067ffffffffffffffff82111715610a4357610a426109ec565b5b80604052505050565b6000610a56610811565b9050610a628282610a1b565b919050565b600067ffffffffffffffff821115610a8257610a816109ec565b5b610a8b826108ce565b9050602081019050919050565b82818337600083830152505050565b6000610aba610ab584610a67565b610a4c565b905082815260208101848484011115610ad657610ad56109e7565b5b610ae1848285610a98565b509392505050565b600082601f830112610afe57610afd6109e2565b5b8135610b0e848260208601610aa7565b91505092915050565b600060208284031215610b2d57610b2c61081b565b5b600082013567ffffffffffffffff811115610b4b57610b4a610820565b5b610b5784828501610ae9565b91505092915050565b60008115159050919050565b610b7581610b60565b82525050565b6000606082019050610b906000830186610b6c565b610b9d6020830185610b6c565b610baa6040830184610918565b949350505050565b6000602082019050610bc76000830184610918565b92915050565b610bd681610977565b82525050565b6000602082019050610bf16000830184610bcd565b92915050565b7f596f7520617265206e6f742061207265676973746572656420766f7465720000600082015250565b6000610c2d601e83610893565b9150610c3882610bf7565b602082019050919050565b60006020820190508181036000830152610c5c81610c20565b9050919050565b7f596f75206861766520616c726561647920766f74656400000000000000000000600082015250565b6000610c99601683610893565b9150610ca482610c63565b602082019050919050565b60006020820190508181036000830152610cc881610c8c565b9050919050565b7f496e76616c69642063616e64696461746520696e646578000000000000000000600082015250565b6000610d05601783610893565b9150610d1082610ccf565b602082019050919050565b60006020820190508181036000830152610d3481610cf8565b9050919050565b7f4e487b7100000000000000000000000000000000000000000000000000000000600052603260045260246000fd5b7f4e487b7100000000000000000000000000000000000000000000000000000000600052601160045260246000fd5b6000610da482610825565b9150610daf83610825565b9250828201905080821115610dc757610dc6610d6a565b5b92915050565b7f4e487b7100000000000000000000000000000000000000000000000000000000600052602260045260246000fd5b60006002820490506001821680610e1457607f821691505b602082108103610e2757610e26610dcd565b5b50919050565b7f4f6e6c792061646d696e2063616e20706572666f726d2074686973206163746960008201527f6f6e000000000000000000000000000000000000000000000000000000000000602082015250565b6000610e89602283610893565b9150610e9482610e2d565b604082019050919050565b60006020820190508181036000830152610eb881610e7c565b9050919050565b7f566f74657220616c726561647920726567697374657265640000000000000000600082015250565b6000610ef5601883610893565b9150610f0082610ebf565b602082019050919050565b60006020820190508181036000830152610f2481610ee8565b9050919050565b60008190508160005260206000209050919050565b60006020601f8301049050919050565b600082821b905092915050565b600060088302610f8d7fffffffffffffffffffffffffffffffffffffffffffffffffffffffffffffffff82610f50565b610f978683610f50565b95508019841693508086168417925050509392505050565b6000819050919050565b6000610fd4610fcf610fca84610825565b610faf565b610825565b9050919050565b6000819050919050565b610fee83610fb9565b611002610ffa82610fdb565b848454610f5d565b825550505050565b600090565b61101761100a565b611022818484610fe5565b505050565b5b818110156110465761103b60008261100f565b600181019050611028565b5050565b601f82111561108b5761105c81610f2b565b61106584610f40565b81016020851015611074578190505b61108861108085610f40565b830182611027565b50505b505050565b600082821c905092915050565b60006110ae60001984600802611090565b1980831691505092915050565b60006110c7838361109d565b9150826002028217905092915050565b6110e082610888565b67ffffffffffffffff8111156110f9576110f86109ec565b5b6111038254610dfc565b61110e82828561104a565b600060209050601f831160018114611141576000841561112f578287015190505b61113985826110bb565b8655506111a1565b601f19841661114f86610f2b565b60005b8281101561117757848901518255600182019150602085019450602081019050611152565b868310156111945784890151611190601f89168261109d565b8355505b6001600288020188555050505b50505050505056fea26469706673582212203e52b06f803a91cd0a5ea473cfbdafd76c0ac83bdb662cd00af304e64f57a95e64736f6c634300081b0033",
  "linkReferences": {},
  "deployedLinkReferences": {}
}